{
  "contractName": "Beasiswa",
  "abi": [
    {
      "constant": true,
      "inputs": [
        {
          "name": "",
          "type": "address"
        }
      ],
      "name": "list_mahasiswa",
      "outputs": [
        {
          "name": "id_mhs",
          "type": "address"
        },
        {
          "name": "nama",
          "type": "string"
        },
        {
          "name": "nim",
          "type": "string"
        },
        {
          "name": "ttl",
          "type": "string"
        },
        {
          "name": "alamat",
          "type": "string"
        },
        {
          "name": "email",
          "type": "string"
        }
      ],
      "payable": false,
      "stateMutability": "view",
      "type": "function"
    },
    {
      "constant": true,
      "inputs": [
        {
          "name": "",
          "type": "uint256"
        }
      ],
      "name": "List_Beasiswa",
      "outputs": [
        {
          "name": "id",
          "type": "uint256"
        },
        {
          "name": "judul",
          "type": "string"
        },
        {
          "name": "deskripsi",
          "type": "string"
        },
        {
          "name": "main_link",
          "type": "string"
        },
        {
          "name": "is_active",
          "type": "bool"
        },
        {
          "name": "kuota",
          "type": "uint256"
        },
        {
          "name": "jumlah_pendaftar",
          "type": "uint256"
        }
      ],
      "payable": false,
      "stateMutability": "view",
      "type": "function"
    },
    {
      "constant": true,
      "inputs": [
        {
          "name": "",
          "type": "uint256"
        }
      ],
      "name": "list_mahasiswa_pendaftar",
      "outputs": [
        {
          "name": "id_mhs",
          "type": "address"
        },
        {
          "name": "is_verified",
          "type": "uint256"
        },
        {
          "name": "ipk",
          "type": "string"
        },
        {
          "name": "fileKhs",
          "type": "string"
        },
        {
          "name": "urlKHS",
          "type": "string"
        },
        {
          "name": "alasan",
          "type": "string"
        },
        {
          "name": "beasiswa_id",
          "type": "uint256"
        }
      ],
      "payable": false,
      "stateMutability": "view",
      "type": "function"
    },
    {
      "constant": true,
      "inputs": [
        {
          "name": "",
          "type": "uint256"
        }
      ],
      "name": "list_mahasiswa_admin",
      "outputs": [
        {
          "name": "id_mhs",
          "type": "address"
        },
        {
          "name": "nama",
          "type": "string"
        },
        {
          "name": "nim",
          "type": "string"
        },
        {
          "name": "ttl",
          "type": "string"
        },
        {
          "name": "alamat",
          "type": "string"
        },
        {
          "name": "email",
          "type": "string"
        }
      ],
      "payable": false,
      "stateMutability": "view",
      "type": "function"
    },
    {
      "constant": true,
      "inputs": [],
      "name": "admin",
      "outputs": [
        {
          "name": "",
          "type": "address"
        }
      ],
      "payable": false,
      "stateMutability": "view",
      "type": "function"
    },
    {
      "inputs": [],
      "payable": false,
      "stateMutability": "nonpayable",
      "type": "constructor"
    },
    {
      "constant": true,
      "inputs": [],
      "name": "Admin",
      "outputs": [
        {
          "name": "",
          "type": "address"
        }
      ],
      "payable": false,
      "stateMutability": "view",
      "type": "function"
    },
    {
      "constant": false,
      "inputs": [
        {
          "name": "_judul",
          "type": "string"
        },
        {
          "name": "_deskripsi",
          "type": "string"
        },
        {
          "name": "_main_link",
          "type": "string"
        },
        {
          "name": "_kuota",
          "type": "uint256"
        }
      ],
      "name": "penambahanBeasiswa",
      "outputs": [],
      "payable": false,
      "stateMutability": "nonpayable",
      "type": "function"
    },
    {
      "constant": true,
      "inputs": [],
      "name": "getSumBeasiswa",
      "outputs": [
        {
          "name": "",
          "type": "uint256"
        }
      ],
      "payable": false,
      "stateMutability": "view",
      "type": "function"
    },
    {
      "constant": false,
      "inputs": [
        {
          "name": "_beasiswa_id",
          "type": "uint256"
        },
        {
          "name": "_ipk",
          "type": "string"
        },
        {
          "name": "file_",
          "type": "string"
        },
        {
          "name": "url_",
          "type": "string"
        }
      ],
      "name": "mendaftarBeasiswa",
      "outputs": [],
      "payable": false,
      "stateMutability": "nonpayable",
      "type": "function"
    },
    {
      "constant": true,
      "inputs": [],
      "name": "getSumAllPendaftar",
      "outputs": [
        {
          "name": "",
          "type": "uint256"
        }
      ],
      "payable": false,
      "stateMutability": "view",
      "type": "function"
    },
    {
      "constant": true,
      "inputs": [
        {
          "name": "beasiswa",
          "type": "uint256"
        }
      ],
      "name": "getSumPendaftar",
      "outputs": [
        {
          "name": "",
          "type": "uint256"
        }
      ],
      "payable": false,
      "stateMutability": "view",
      "type": "function"
    },
    {
      "constant": false,
      "inputs": [
        {
          "name": "_id_mhs",
          "type": "uint256"
        },
        {
          "name": "status",
          "type": "uint256"
        },
        {
          "name": "alasan",
          "type": "string"
        }
      ],
      "name": "verify_mahasiswa",
      "outputs": [],
      "payable": false,
      "stateMutability": "nonpayable",
      "type": "function"
    },
    {
      "constant": true,
      "inputs": [
        {
          "name": "mhs",
          "type": "address"
        },
        {
          "name": "beasiswa_id",
          "type": "uint256"
        }
      ],
      "name": "cek_regist_exist",
      "outputs": [
        {
          "name": "",
          "type": "bool"
        }
      ],
      "payable": false,
      "stateMutability": "view",
      "type": "function"
    },
    {
      "constant": false,
      "inputs": [
        {
          "name": "_nama",
          "type": "string"
        },
        {
          "name": "_nim",
          "type": "string"
        },
        {
          "name": "_ttl",
          "type": "string"
        },
        {
          "name": "_alamat",
          "type": "string"
        },
        {
          "name": "_email",
          "type": "string"
        }
      ],
      "name": "simpanDataDiri",
      "outputs": [],
      "payable": false,
      "stateMutability": "nonpayable",
      "type": "function"
    },
    {
      "constant": true,
      "inputs": [],
      "name": "getSumAllMahasiswa",
      "outputs": [
        {
          "name": "",
          "type": "uint256"
        }
      ],
      "payable": false,
      "stateMutability": "view",
      "type": "function"
    },
    {
      "constant": true,
      "inputs": [],
      "name": "getAllMahasiswa",
      "outputs": [
        {
          "components": [
            {
              "name": "id_mhs",
              "type": "address"
            },
            {
              "name": "nama",
              "type": "string"
            },
            {
              "name": "nim",
              "type": "string"
            },
            {
              "name": "ttl",
              "type": "string"
            },
            {
              "name": "alamat",
              "type": "string"
            },
            {
              "name": "email",
              "type": "string"
            }
          ],
          "name": "",
          "type": "tuple[]"
        }
      ],
      "payable": false,
      "stateMutability": "view",
      "type": "function"
    },
    {
      "constant": true,
      "inputs": [
        {
          "name": "mhs",
          "type": "address"
        }
      ],
      "name": "getMahasiswa",
      "outputs": [
        {
          "components": [
            {
              "name": "id_mhs",
              "type": "address"
            },
            {
              "name": "nama",
              "type": "string"
            },
            {
              "name": "nim",
              "type": "string"
            },
            {
              "name": "ttl",
              "type": "string"
            },
            {
              "name": "alamat",
              "type": "string"
            },
            {
              "name": "email",
              "type": "string"
            }
          ],
          "name": "",
          "type": "tuple"
        }
      ],
      "payable": false,
      "stateMutability": "view",
      "type": "function"
    }
  ],
  "bytecode": "0x6060604052341561000f57600080fd5b336000806101000a81548173ffffffffffffffffffffffffffffffffffffffff021916908373ffffffffffffffffffffffffffffffffffffffff16021790555060006001819055506000600281905550600060038190555061260c806100766000396000f300606060405236156100ef576000357c0100000000000000000000000000000000000000000000000000000000900463ffffffff16806315976500146100f45780632995544a1461011d57806341058f5e146101825780634dae397b1461026e5780635018f6f4146102dd57806363d83683146103c957806371c111a5146106ef5780637cf9cd29146108da57806388d6667714610903578063a838755d1461092c578063a9b5909b14610bc1578063c4c714e514610bf8578063ed501a8914610c45578063f16b9cb014610f55578063f7aea6e5146110be578063f851a44014611118578063ff1b636d1461116d575b600080fd5b34156100ff57600080fd5b6101076111c2565b6040518082815260200191505060405180910390f35b341561012857600080fd5b6101306111cc565b60405180806020018281038252838181518152602001915080516000925b81841015610171578284906020019060200201518152602001926001019261014e565b925050509250505060405180910390f35b341561018d57600080fd5b61026c600480803590602001908201803590602001908080601f0160208091040260200160405190810160405280939291908181526020018383808284378201915050505050509190803590602001908201803590602001908080601f0160208091040260200160405190810160405280939291908181526020018383808284378201915050505050509190803590602001908201803590602001908080601f0160208091040260200160405190810160405280939291908181526020018383808284378201915050505050509190803590602001909190505061160a565b005b341561027957600080fd5b6102db600480803590602001909190803590602001909190803590602001908201803590602001908080601f0160208091040260200160405190810160405280939291908181526020018383808284378201915050505050509190505061176e565b005b34156102e857600080fd5b6103c7600480803590602001909190803590602001908201803590602001908080601f0160208091040260200160405190810160405280939291908181526020018383808284378201915050505050509190803590602001908201803590602001908080601f0160208091040260200160405190810160405280939291908181526020018383808284378201915050505050509190803590602001908201803590602001908080601f01602080910402602001604051908101604052809392919081815260200183838082843782019150505050505091905050611814565b005b34156103d457600080fd5b610400600480803573ffffffffffffffffffffffffffffffffffffffff16906020019091905050611a15565b604051808773ffffffffffffffffffffffffffffffffffffffff1673ffffffffffffffffffffffffffffffffffffffff168152602001806020018060200180602001806020018060200186810386528b8181546001816001161561010002031660029004815260200191508054600181600116156101000203166002900480156104cb5780601f106104a0576101008083540402835291602001916104cb565b820191906000526020600020905b8154815290600101906020018083116104ae57829003601f168201915b505086810385528a81815460018160011615610100020316600290048152602001915080546001816001161561010002031660029004801561054e5780601f106105235761010080835404028352916020019161054e565b820191906000526020600020905b81548152906001019060200180831161053157829003601f168201915b50508681038452898181546001816001161561010002031660029004815260200191508054600181600116156101000203166002900480156105d15780601f106105a6576101008083540402835291602001916105d1565b820191906000526020600020905b8154815290600101906020018083116105b457829003601f168201915b50508681038352888181546001816001161561010002031660029004815260200191508054600181600116156101000203166002900480156106545780601f1061062957610100808354040283529160200191610654565b820191906000526020600020905b81548152906001019060200180831161063757829003601f168201915b50508681038252878181546001816001161561010002031660029004815260200191508054600181600116156101000203166002900480156106d75780601f106106ac576101008083540402835291602001916106d7565b820191906000526020600020905b8154815290600101906020018083116106ba57829003601f168201915b50509b50505050505050505050505060405180910390f35b34156106fa57600080fd5b6107106004808035906020019091905050611a6c565b604051808881526020018060200180602001806020018715151515815260200186815260200185815260200184810384528a8181546001816001161561010002031660029004815260200191508054600181600116156101000203166002900480156107bd5780601f10610792576101008083540402835291602001916107bd565b820191906000526020600020905b8154815290600101906020018083116107a057829003601f168201915b50508481038352898181546001816001161561010002031660029004815260200191508054600181600116156101000203166002900480156108405780601f1061081557610100808354040283529160200191610840565b820191906000526020600020905b81548152906001019060200180831161082357829003601f168201915b50508481038252888181546001816001161561010002031660029004815260200191508054600181600116156101000203166002900480156108c35780601f10610898576101008083540402835291602001916108c3565b820191906000526020600020905b8154815290600101906020018083116108a657829003601f168201915b50509a505050505050505050505060405180910390f35b34156108e557600080fd5b6108ed611ab8565b6040518082815260200191505060405180910390f35b341561090e57600080fd5b610916611ac2565b6040518082815260200191505060405180910390f35b341561093757600080fd5b61094d6004808035906020019091905050611acc565b604051808873ffffffffffffffffffffffffffffffffffffffff1673ffffffffffffffffffffffffffffffffffffffff1681526020018781526020018060200180602001806020018060200186815260200185810385528a818154600181600116156101000203166002900481526020019150805460018160011615610100020316600290048015610a205780601f106109f557610100808354040283529160200191610a20565b820191906000526020600020905b815481529060010190602001808311610a0357829003601f168201915b5050858103845289818154600181600116156101000203166002900481526020019150805460018160011615610100020316600290048015610aa35780601f10610a7857610100808354040283529160200191610aa3565b820191906000526020600020905b815481529060010190602001808311610a8657829003601f168201915b5050858103835288818154600181600116156101000203166002900481526020019150805460018160011615610100020316600290048015610b265780601f10610afb57610100808354040283529160200191610b26565b820191906000526020600020905b815481529060010190602001808311610b0957829003601f168201915b5050858103825287818154600181600116156101000203166002900481526020019150805460018160011615610100020316600290048015610ba95780601f10610b7e57610100808354040283529160200191610ba9565b820191906000526020600020905b815481529060010190602001808311610b8c57829003601f168201915b50509b50505050505050505050505060405180910390f35b3415610bcc57600080fd5b610be26004808035906020019091905050611b2a565b6040518082815260200191505060405180910390f35b3415610c0357600080fd5b610c2f600480803573ffffffffffffffffffffffffffffffffffffffff16906020019091905050611b4a565b6040518082815260200191505060405180910390f35b3415610c5057600080fd5b610c666004808035906020019091905050611f24565b604051808773ffffffffffffffffffffffffffffffffffffffff1673ffffffffffffffffffffffffffffffffffffffff168152602001806020018060200180602001806020018060200186810386528b818154600181600116156101000203166002900481526020019150805460018160011615610100020316600290048015610d315780601f10610d0657610100808354040283529160200191610d31565b820191906000526020600020905b815481529060010190602001808311610d1457829003601f168201915b505086810385528a818154600181600116156101000203166002900481526020019150805460018160011615610100020316600290048015610db45780601f10610d8957610100808354040283529160200191610db4565b820191906000526020600020905b815481529060010190602001808311610d9757829003601f168201915b5050868103845289818154600181600116156101000203166002900481526020019150805460018160011615610100020316600290048015610e375780601f10610e0c57610100808354040283529160200191610e37565b820191906000526020600020905b815481529060010190602001808311610e1a57829003601f168201915b5050868103835288818154600181600116156101000203166002900481526020019150805460018160011615610100020316600290048015610eba5780601f10610e8f57610100808354040283529160200191610eba565b820191906000526020600020905b815481529060010190602001808311610e9d57829003601f168201915b5050868103825287818154600181600116156101000203166002900481526020019150805460018160011615610100020316600290048015610f3d5780601f10610f1257610100808354040283529160200191610f3d565b820191906000526020600020905b815481529060010190602001808311610f2057829003601f168201915b50509b50505050505050505050505060405180910390f35b3415610f6057600080fd5b6110bc600480803590602001908201803590602001908080601f0160208091040260200160405190810160405280939291908181526020018383808284378201915050505050509190803590602001908201803590602001908080601f0160208091040260200160405190810160405280939291908181526020018383808284378201915050505050509190803590602001908201803590602001908080601f0160208091040260200160405190810160405280939291908181526020018383808284378201915050505050509190803590602001908201803590602001908080601f0160208091040260200160405190810160405280939291908181526020018383808284378201915050505050509190803590602001908201803590602001908080601f01602080910402602001604051908101604052809392919081815260200183838082843782019150505050505091905050611f7b565b005b34156110c957600080fd5b6110fe600480803573ffffffffffffffffffffffffffffffffffffffff169060200190919080359060200190919050506121ee565b604051808215151515815260200191505060405180910390f35b341561112357600080fd5b61112b6122b1565b604051808273ffffffffffffffffffffffffffffffffffffffff1673ffffffffffffffffffffffffffffffffffffffff16815260200191505060405180910390f35b341561117857600080fd5b6111806122d6565b604051808273ffffffffffffffffffffffffffffffffffffffff1673ffffffffffffffffffffffffffffffffffffffff16815260200191505060405180910390f35b6000600254905090565b6111d46122ff565b6111dc6122ff565b6000806003546040518059106111ef5750595b90808252806020026020018201604052801561122557816020015b611212612313565b81526020019060019003908161120a5790505b509250600091505b600354821015611601576007600083815260200190815260200160002090508060c060405190810160405290816000820160009054906101000a900473ffffffffffffffffffffffffffffffffffffffff1673ffffffffffffffffffffffffffffffffffffffff1673ffffffffffffffffffffffffffffffffffffffff168152602001600182018054600181600116156101000203166002900480601f0160208091040260200160405190810160405280929190818152602001828054600181600116156101000203166002900480156113485780601f1061131d57610100808354040283529160200191611348565b820191906000526020600020905b81548152906001019060200180831161132b57829003601f168201915b50505050508152602001600282018054600181600116156101000203166002900480601f0160208091040260200160405190810160405280929190818152602001828054600181600116156101000203166002900480156113ea5780601f106113bf576101008083540402835291602001916113ea565b820191906000526020600020905b8154815290600101906020018083116113cd57829003601f168201915b50505050508152602001600382018054600181600116156101000203166002900480601f01602080910402602001604051908101604052809291908181526020018280546001816001161561010002031660029004801561148c5780601f106114615761010080835404028352916020019161148c565b820191906000526020600020905b81548152906001019060200180831161146f57829003601f168201915b50505050508152602001600482018054600181600116156101000203166002900480601f01602080910402602001604051908101604052809291908181526020018280546001816001161561010002031660029004801561152e5780601f106115035761010080835404028352916020019161152e565b820191906000526020600020905b81548152906001019060200180831161151157829003601f168201915b50505050508152602001600582018054600181600116156101000203166002900480601f0160208091040260200160405190810160405280929190818152602001828054600181600116156101000203166002900480156115d05780601f106115a5576101008083540402835291602001916115d0565b820191906000526020600020905b8154815290600101906020018083116115b357829003601f168201915b50505050508152505083838151811015156115e757fe5b90602001906020020181905250818060010192505061122d565b82935050505090565b61161261237e565b6000809054906101000a900473ffffffffffffffffffffffffffffffffffffffff1673ffffffffffffffffffffffffffffffffffffffff163373ffffffffffffffffffffffffffffffffffffffff1614151561166d57600080fd5b60e060405190810160405280600154815260200186815260200185815260200184815260200160011515815260200183815260200160008152509050806004600060015481526020019081526020016000206000820151816000015560208201518160010190805190602001906116e59291906123d0565b5060408201518160020190805190602001906117029291906123d0565b50606082015181600301908051906020019061171f9291906123d0565b5060808201518160040160006101000a81548160ff02191690831515021790555060a0820151816005015560c08201518160060155905050600180600082825401925050819055505050505050565b6000809054906101000a900473ffffffffffffffffffffffffffffffffffffffff1673ffffffffffffffffffffffffffffffffffffffff163373ffffffffffffffffffffffffffffffffffffffff161415156117c957600080fd5b8160056000858152602001908152602001600020600101819055508060056000858152602001908152602001600020600501908051906020019061180e929190612450565b50505050565b60008061181f6124d0565b6004600088815260200190815260200160002060050154925060046000888152602001908152602001600020600601549150600082840311151561186257600080fd5b6004600088815260200190815260200160002060040160009054906101000a900460ff16151561189157600080fd5b60e0604051908101604052803373ffffffffffffffffffffffffffffffffffffffff16815260200160008152602001878152602001868152602001858152602001602060405190810160405280600081525081526020018881525090508060056000600254815260200190815260200160002060008201518160000160006101000a81548173ffffffffffffffffffffffffffffffffffffffff021916908373ffffffffffffffffffffffffffffffffffffffff1602179055506020820151816001015560408201518160020190805190602001906119719291906123d0565b50606082015181600301908051906020019061198e9291906123d0565b5060808201518160040190805190602001906119ab9291906123d0565b5060a08201518160050190805190602001906119c89291906123d0565b5060c0820151816006015590505060016004600089815260200190815260200160002060060160008282540192505081905550600160026000828254019250508190555050505050505050565b60066020528060005260406000206000915090508060000160009054906101000a900473ffffffffffffffffffffffffffffffffffffffff1690806001019080600201908060030190806004019080600501905086565b60046020528060005260406000206000915090508060000154908060010190806002019080600301908060040160009054906101000a900460ff16908060050154908060060154905087565b6000600354905090565b6000600154905090565b60056020528060005260406000206000915090508060000160009054906101000a900473ffffffffffffffffffffffffffffffffffffffff169080600101549080600201908060030190806004019080600501908060060154905087565b600060046000838152602001908152602001600020600601549050919050565b611b5261253c565b600660008373ffffffffffffffffffffffffffffffffffffffff1673ffffffffffffffffffffffffffffffffffffffff16815260200190815260200160002060c060405190810160405290816000820160009054906101000a900473ffffffffffffffffffffffffffffffffffffffff1673ffffffffffffffffffffffffffffffffffffffff1673ffffffffffffffffffffffffffffffffffffffff168152602001600182018054600181600116156101000203166002900480601f016020809104026020016040519081016040528092919081815260200182805460018160011615610100020316600290048015611c8c5780601f10611c6157610100808354040283529160200191611c8c565b820191906000526020600020905b815481529060010190602001808311611c6f57829003601f168201915b50505050508152602001600282018054600181600116156101000203166002900480601f016020809104026020016040519081016040528092919081815260200182805460018160011615610100020316600290048015611d2e5780601f10611d0357610100808354040283529160200191611d2e565b820191906000526020600020905b815481529060010190602001808311611d1157829003601f168201915b50505050508152602001600382018054600181600116156101000203166002900480601f016020809104026020016040519081016040528092919081815260200182805460018160011615610100020316600290048015611dd05780601f10611da557610100808354040283529160200191611dd0565b820191906000526020600020905b815481529060010190602001808311611db357829003601f168201915b50505050508152602001600482018054600181600116156101000203166002900480601f016020809104026020016040519081016040528092919081815260200182805460018160011615610100020316600290048015611e725780601f10611e4757610100808354040283529160200191611e72565b820191906000526020600020905b815481529060010190602001808311611e5557829003601f168201915b50505050508152602001600582018054600181600116156101000203166002900480601f016020809104026020016040519081016040528092919081815260200182805460018160011615610100020316600290048015611f145780601f10611ee957610100808354040283529160200191611f14565b820191906000526020600020905b815481529060010190602001808311611ef757829003601f168201915b5050505050815250509050919050565b60076020528060005260406000206000915090508060000160009054906101000a900473ffffffffffffffffffffffffffffffffffffffff1690806001019080600201908060030190806004019080600501905086565b611f8361253c565b60c0604051908101604052803373ffffffffffffffffffffffffffffffffffffffff16815260200187815260200186815260200185815260200184815260200183815250905080600660003373ffffffffffffffffffffffffffffffffffffffff1673ffffffffffffffffffffffffffffffffffffffff16815260200190815260200160002060008201518160000160006101000a81548173ffffffffffffffffffffffffffffffffffffffff021916908373ffffffffffffffffffffffffffffffffffffffff160217905550602082015181600101908051906020019061206c9291906123d0565b5060408201518160020190805190602001906120899291906123d0565b5060608201518160030190805190602001906120a69291906123d0565b5060808201518160040190805190602001906120c39291906123d0565b5060a08201518160050190805190602001906120e09291906123d0565b509050508060076000600354815260200190815260200160002060008201518160000160006101000a81548173ffffffffffffffffffffffffffffffffffffffff021916908373ffffffffffffffffffffffffffffffffffffffff160217905550602082015181600101908051906020019061215d9291906123d0565b50604082015181600201908051906020019061217a9291906123d0565b5060608201518160030190805190602001906121979291906123d0565b5060808201518160040190805190602001906121b49291906123d0565b5060a08201518160050190805190602001906121d19291906123d0565b509050506001600360008282540192505081905550505050505050565b6000806000809150600090505b6002548110156122a6578473ffffffffffffffffffffffffffffffffffffffff166005600083815260200190815260200160002060000160009054906101000a900473ffffffffffffffffffffffffffffffffffffffff1673ffffffffffffffffffffffffffffffffffffffff1614801561228b5750836005600083815260200190815260200160002060060154145b1561229957600191506122a6565b80806001019150506121fb565b819250505092915050565b6000809054906101000a900473ffffffffffffffffffffffffffffffffffffffff1681565b60008060009054906101000a900473ffffffffffffffffffffffffffffffffffffffff16905090565b602060405190810160405280600081525090565b60c060405190810160405280600073ffffffffffffffffffffffffffffffffffffffff1681526020016123446125a7565b81526020016123516125a7565b815260200161235e6125a7565b815260200161236b6125a7565b81526020016123786125a7565b81525090565b60e060405190810160405280600081526020016123996125a7565b81526020016123a66125a7565b81526020016123b36125a7565b815260200160001515815260200160008152602001600081525090565b828054600181600116156101000203166002900490600052602060002090601f016020900481019282601f1061241157805160ff191683800117855561243f565b8280016001018555821561243f579182015b8281111561243e578251825591602001919060010190612423565b5b50905061244c91906125bb565b5090565b828054600181600116156101000203166002900490600052602060002090601f016020900481019282601f1061249157805160ff19168380011785556124bf565b828001600101855582156124bf579182015b828111156124be5782518255916020019190600101906124a3565b5b5090506124cc91906125bb565b5090565b60e060405190810160405280600073ffffffffffffffffffffffffffffffffffffffff168152602001600081526020016125086125a7565b81526020016125156125a7565b81526020016125226125a7565b815260200161252f6125a7565b8152602001600081525090565b60c060405190810160405280600073ffffffffffffffffffffffffffffffffffffffff16815260200161256d6125a7565b815260200161257a6125a7565b81526020016125876125a7565b81526020016125946125a7565b81526020016125a16125a7565b81525090565b602060405190810160405280600081525090565b6125dd91905b808211156125d95760008160009055506001016125c1565b5090565b905600a165627a7a72305820bdaa89f86ca414f6e9f60260e4ad293ff3de46f748f2216d78b9fea6e021539f0029",
  "source": "// SPDX-License-Identifier: GPL-3.0\npragma solidity ^0.4.17;\n// pragma experimental ABIEncoderv2;\n\n//atribut dan fungsi\ncontract Beasiswa {\n    address public admin;\n    uint jumlah_beasiswa;\n    uint jumlah_pendaftar_all;\n    uint jumlah_mahasiswa;\n\n    function Beasiswa() public {     \n        admin = msg.sender; \n        jumlah_beasiswa = 0;\n        jumlah_pendaftar_all = 0;\n        jumlah_mahasiswa = 0;\n    }\n    // Fungsi restrict / batas agar hanya bisa diakses oleh admin\n    function Admin() public view returns(address) {\n        return admin;\n    }\n    // hanya admin yang bisa mengakses\n    modifier onlyAdmin() {\n        require(msg.sender == admin);\n        _;\n    }\n\n    // Set up struktur data Beasiswa\n    struct Data_Beasiswa{\n        uint id;\n        string judul;\n        string deskripsi;\n        string main_link;\n        bool is_active;\n        uint kuota;\n        uint jumlah_pendaftar;\n    }\n\n    // Pemetaan atau memasukkan data tunggal beasiswa agar menjadi suatu kumpulan data beasiswa\n    mapping(uint => Data_Beasiswa) public List_Beasiswa;\n\n    // memiliki beberapa parameter yang hanya dapat di akses oleh admin saja \n        function penambahanBeasiswa(string _judul, string _deskripsi, string _main_link, uint _kuota) public onlyAdmin() {\n    // membuat data beasiswa baru dari atribut-atribut yang sudah di sediakan     \n        Data_Beasiswa memory newBeasiswa = Data_Beasiswa({\n            id : jumlah_beasiswa,\n            judul : _judul,\n            deskripsi : _deskripsi,\n            main_link : _main_link,\n            is_active : true,\n            kuota : _kuota,\n            jumlah_pendaftar : 0\n        });\n        // menambahkan list beasiswa menggunkan array\n        List_Beasiswa[jumlah_beasiswa] = newBeasiswa;\n        jumlah_beasiswa += 1;\n    }\n    // fungsi mengmbalikan jumalah beasisawa yang terdaftar di sistem\n    function getSumBeasiswa() public view returns (uint) {\n        return jumlah_beasiswa;\n    }\n\n    // Set up data pelamar beasiswa\n    struct MahasiswaPelamar {\n        address id_mhs;\n        uint is_verified;\n        string ipk;\n        string fileKhs;\n        string urlKHS;\n        string alasan;\n        uint beasiswa_id;\n    }\n\n    mapping(uint => MahasiswaPelamar) public list_mahasiswa_pendaftar;\n\n    function mendaftarBeasiswa(uint _beasiswa_id, string _ipk, string file_, string url_) public {\n        uint kuota = List_Beasiswa[_beasiswa_id].kuota;\n        uint jumlah_pendaftar = List_Beasiswa[_beasiswa_id].jumlah_pendaftar;\n        // Harus masih ada kuota tersisa\n        require((kuota - jumlah_pendaftar) > 0);\n        require(List_Beasiswa[_beasiswa_id].is_active);\n        // string [] initArr;\n        // initArr.push(\"0\");\n        // initArr.push(\"-\");\n        MahasiswaPelamar memory newMahasiswaPelamar = MahasiswaPelamar({\n            id_mhs : msg.sender,\n            is_verified : 0,\n            alasan : \"\",\n            ipk : _ipk,\n            beasiswa_id : _beasiswa_id,\n            fileKhs : file_,\n            urlKHS : url_\n        });\n        list_mahasiswa_pendaftar[jumlah_pendaftar_all] = newMahasiswaPelamar;\n        List_Beasiswa[_beasiswa_id].jumlah_pendaftar += 1;\n        jumlah_pendaftar_all += 1;\n    }\n\n    //fungsi mengmbalikan total jumalah semua pendaftar yang terdaftar di sistem \n    function getSumAllPendaftar() public view returns (uint) {\n        return jumlah_pendaftar_all;\n    }\n    // fungsi mengembalikan jumlah pendaftar di setiap beasiswa\n    function getSumPendaftar(uint beasiswa) public view returns (uint) {\n        return List_Beasiswa[beasiswa].jumlah_pendaftar;\n    }\n\n    // Untuk admin memverifikasi tahap 1 pendaftaram, sebelum mhs lanjut ke situs utama\n    function verify_mahasiswa(uint _id_mhs, uint status, string alasan) public onlyAdmin() {\n        list_mahasiswa_pendaftar[_id_mhs].is_verified = status;\n        list_mahasiswa_pendaftar[_id_mhs].alasan = alasan;\n    }    \n\n    // function ubahStatusBeasiswa(uint _id_beasiswa, bool status) public onlyAdmin() {\n    //     List_Beasiswa[_id_beasiswa].is_active = status;\n    // }    \n\n//mencegah pendaftaran lebih dari sekali di beasiswa yang sama \n    function cek_regist_exist(address mhs, uint beasiswa_id) public view returns (bool){\n        bool terdaftar = false;\n        for (uint i = 0; i < jumlah_pendaftar_all; i++) {\n            if (list_mahasiswa_pendaftar[i].id_mhs == mhs && list_mahasiswa_pendaftar[i].beasiswa_id == beasiswa_id) {\n                terdaftar = true;\n                break;\n            }\n        }    \n        return terdaftar;\n    }\n\n    // Set up mahasiswa, data diri saja. Bukan data pelamar.\n    struct Mahasiswa {\n        address id_mhs;\n        string nama;\n        string nim;\n        // string ipk;\n        string ttl;\n        string alamat;\n        string email;\n    }\n\n    //Pemetaan atau memasukkan data tunggal mahasiswa yang mendaftar agar menjadi suatu kumpulan data mahasiswa\n    mapping(address => Mahasiswa) public list_mahasiswa;\n    mapping(uint => Mahasiswa) public list_mahasiswa_admin;\n\n    function simpanDataDiri(string _nama, string _nim, string _ttl, string _alamat, string _email) public {\n        Mahasiswa memory newMahasiswa = Mahasiswa({\n            id_mhs : msg.sender,\n            nama : _nama,\n            nim : _nim,\n            // ipk : _ipk,\n            ttl : _ttl,\n            alamat : _alamat,\n            email : _email\n        });\n        list_mahasiswa[msg.sender] = newMahasiswa;\n        list_mahasiswa_admin[jumlah_mahasiswa] = newMahasiswa;\n        jumlah_mahasiswa += 1;\n    }\n    \n    function getSumAllMahasiswa() public view returns (uint) {\n        return jumlah_mahasiswa;\n    }\n\n    function getAllMahasiswa() public view returns (Mahasiswa[] memory) {\n        Mahasiswa[] memory allMhs = new Mahasiswa[](jumlah_mahasiswa);\n        for (uint i = 0; i < jumlah_mahasiswa; i++) {\n            Mahasiswa storage mhs = list_mahasiswa_admin[i];\n            allMhs[i] = mhs;\n        }\n        return allMhs;\n        // return list_mahasiswa_admin[0];\n    }\n\n    function getMahasiswa(address mhs) public view returns (Mahasiswa memory) {\n        return list_mahasiswa[mhs];\n    }   \n\n    \n    \n    \n}",
  "sourcePath": "D:\\SOAL\\Jobs\\Other\\main\\SIP_Beasiswa\\contracts\\Beasiswa.sol",
  "compiler": {
    "name": "solc",
    "version": "0.4.17+commit.bdeb9e52.Emscripten.clang"
  },
  "schemaVersion": "3.4.10",
  "updatedAt": "2022-10-30T02:46:01.807Z",
  "networkType": "ethereum",
  "devdoc": {
    "methods": {}
  },
  "userdoc": {
    "methods": {}
  }
}