{
  "contractName": "Beasiswa",
  "abi": [
    {
      "constant": true,
      "inputs": [
        {
          "name": "",
          "type": "address"
        }
      ],
      "name": "list_mahasiswa",
      "outputs": [
        {
          "name": "id_mhs",
          "type": "address"
        },
        {
          "name": "nama",
          "type": "string"
        },
        {
          "name": "nim",
          "type": "string"
        },
        {
          "name": "ttl",
          "type": "string"
        },
        {
          "name": "alamat",
          "type": "string"
        },
        {
          "name": "email",
          "type": "string"
        }
      ],
      "payable": false,
      "stateMutability": "view",
      "type": "function"
    },
    {
      "constant": true,
      "inputs": [
        {
          "name": "",
          "type": "uint256"
        }
      ],
      "name": "List_Beasiswa",
      "outputs": [
        {
          "name": "id",
          "type": "uint256"
        },
        {
          "name": "judul",
          "type": "string"
        },
        {
          "name": "deskripsi",
          "type": "string"
        },
        {
          "name": "main_link",
          "type": "string"
        },
        {
          "name": "is_active",
          "type": "bool"
        },
        {
          "name": "kuota",
          "type": "uint256"
        },
        {
          "name": "jumlah_pendaftar",
          "type": "uint256"
        }
      ],
      "payable": false,
      "stateMutability": "view",
      "type": "function"
    },
    {
      "constant": true,
      "inputs": [
        {
          "name": "",
          "type": "uint256"
        }
      ],
      "name": "list_mahasiswa_pendaftar",
      "outputs": [
        {
          "name": "id_mhs",
          "type": "address"
        },
        {
          "name": "is_verified",
          "type": "uint256"
        },
        {
          "name": "ipk",
          "type": "string"
        },
        {
          "name": "alasan",
          "type": "string"
        },
        {
          "name": "beasiswa_id",
          "type": "uint256"
        }
      ],
      "payable": false,
      "stateMutability": "view",
      "type": "function"
    },
    {
      "constant": true,
      "inputs": [
        {
          "name": "",
          "type": "uint256"
        }
      ],
      "name": "list_mahasiswa_admin",
      "outputs": [
        {
          "name": "id_mhs",
          "type": "address"
        },
        {
          "name": "nama",
          "type": "string"
        },
        {
          "name": "nim",
          "type": "string"
        },
        {
          "name": "ttl",
          "type": "string"
        },
        {
          "name": "alamat",
          "type": "string"
        },
        {
          "name": "email",
          "type": "string"
        }
      ],
      "payable": false,
      "stateMutability": "view",
      "type": "function"
    },
    {
      "constant": true,
      "inputs": [],
      "name": "admin",
      "outputs": [
        {
          "name": "",
          "type": "address"
        }
      ],
      "payable": false,
      "stateMutability": "view",
      "type": "function"
    },
    {
      "inputs": [],
      "payable": false,
      "stateMutability": "nonpayable",
      "type": "constructor"
    },
    {
      "constant": true,
      "inputs": [],
      "name": "Admin",
      "outputs": [
        {
          "name": "",
          "type": "address"
        }
      ],
      "payable": false,
      "stateMutability": "view",
      "type": "function"
    },
    {
      "constant": false,
      "inputs": [
        {
          "name": "_judul",
          "type": "string"
        },
        {
          "name": "_deskripsi",
          "type": "string"
        },
        {
          "name": "_main_link",
          "type": "string"
        },
        {
          "name": "_kuota",
          "type": "uint256"
        }
      ],
      "name": "penambahanBeasiswa",
      "outputs": [],
      "payable": false,
      "stateMutability": "nonpayable",
      "type": "function"
    },
    {
      "constant": true,
      "inputs": [],
      "name": "getSumBeasiswa",
      "outputs": [
        {
          "name": "",
          "type": "uint256"
        }
      ],
      "payable": false,
      "stateMutability": "view",
      "type": "function"
    },
    {
      "constant": false,
      "inputs": [
        {
          "name": "_beasiswa_id",
          "type": "uint256"
        },
        {
          "name": "_ipk",
          "type": "string"
        }
      ],
      "name": "mendaftarBeasiswa",
      "outputs": [],
      "payable": false,
      "stateMutability": "nonpayable",
      "type": "function"
    },
    {
      "constant": true,
      "inputs": [],
      "name": "getSumAllPendaftar",
      "outputs": [
        {
          "name": "",
          "type": "uint256"
        }
      ],
      "payable": false,
      "stateMutability": "view",
      "type": "function"
    },
    {
      "constant": true,
      "inputs": [
        {
          "name": "beasiswa",
          "type": "uint256"
        }
      ],
      "name": "getSumPendaftar",
      "outputs": [
        {
          "name": "",
          "type": "uint256"
        }
      ],
      "payable": false,
      "stateMutability": "view",
      "type": "function"
    },
    {
      "constant": false,
      "inputs": [
        {
          "name": "_id_mhs",
          "type": "uint256"
        },
        {
          "name": "status",
          "type": "uint256"
        },
        {
          "name": "alasan",
          "type": "string"
        }
      ],
      "name": "verify_mahasiswa",
      "outputs": [],
      "payable": false,
      "stateMutability": "nonpayable",
      "type": "function"
    },
    {
      "constant": true,
      "inputs": [
        {
          "name": "mhs",
          "type": "address"
        },
        {
          "name": "beasiswa_id",
          "type": "uint256"
        }
      ],
      "name": "cek_regist_exist",
      "outputs": [
        {
          "name": "",
          "type": "bool"
        }
      ],
      "payable": false,
      "stateMutability": "view",
      "type": "function"
    },
    {
      "constant": false,
      "inputs": [
        {
          "name": "_nama",
          "type": "string"
        },
        {
          "name": "_nim",
          "type": "string"
        },
        {
          "name": "_ttl",
          "type": "string"
        },
        {
          "name": "_alamat",
          "type": "string"
        },
        {
          "name": "_email",
          "type": "string"
        }
      ],
      "name": "simpanDataDiri",
      "outputs": [],
      "payable": false,
      "stateMutability": "nonpayable",
      "type": "function"
    },
    {
      "constant": true,
      "inputs": [],
      "name": "getSumAllMahasiswa",
      "outputs": [
        {
          "name": "",
          "type": "uint256"
        }
      ],
      "payable": false,
      "stateMutability": "view",
      "type": "function"
    },
    {
      "constant": true,
      "inputs": [],
      "name": "getAllMahasiswa",
      "outputs": [
        {
          "components": [
            {
              "name": "id_mhs",
              "type": "address"
            },
            {
              "name": "nama",
              "type": "string"
            },
            {
              "name": "nim",
              "type": "string"
            },
            {
              "name": "ttl",
              "type": "string"
            },
            {
              "name": "alamat",
              "type": "string"
            },
            {
              "name": "email",
              "type": "string"
            }
          ],
          "name": "",
          "type": "tuple[]"
        }
      ],
      "payable": false,
      "stateMutability": "view",
      "type": "function"
    },
    {
      "constant": true,
      "inputs": [
        {
          "name": "mhs",
          "type": "address"
        }
      ],
      "name": "getMahasiswa",
      "outputs": [
        {
          "components": [
            {
              "name": "id_mhs",
              "type": "address"
            },
            {
              "name": "nama",
              "type": "string"
            },
            {
              "name": "nim",
              "type": "string"
            },
            {
              "name": "ttl",
              "type": "string"
            },
            {
              "name": "alamat",
              "type": "string"
            },
            {
              "name": "email",
              "type": "string"
            }
          ],
          "name": "",
          "type": "tuple"
        }
      ],
      "payable": false,
      "stateMutability": "view",
      "type": "function"
    }
  ],
  "bytecode": "0x6060604052341561000f57600080fd5b336000806101000a81548173ffffffffffffffffffffffffffffffffffffffff021916908373ffffffffffffffffffffffffffffffffffffffff160217905550600060018190555060006002819055506000600381905550612408806100766000396000f300606060405236156100ef576000357c0100000000000000000000000000000000000000000000000000000000900463ffffffff16806315976500146100f45780632995544a1461011d57806341058f5e1461018257806342147de81461026e5780634dae397b146102d457806363d836831461034357806371c111a5146106695780637cf9cd291461085457806388d666771461087d578063a838755d146108a6578063a9b5909b14610a29578063c4c714e514610a60578063ed501a8914610aad578063f16b9cb014610dbd578063f7aea6e514610f26578063f851a44014610f80578063ff1b636d14610fd5575b600080fd5b34156100ff57600080fd5b61010761102a565b6040518082815260200191505060405180910390f35b341561012857600080fd5b610130611034565b60405180806020018281038252838181518152602001915080516000925b81841015610171578284906020019060200201518152602001926001019261014e565b925050509250505060405180910390f35b341561018d57600080fd5b61026c600480803590602001908201803590602001908080601f0160208091040260200160405190810160405280939291908181526020018383808284378201915050505050509190803590602001908201803590602001908080601f0160208091040260200160405190810160405280939291908181526020018383808284378201915050505050509190803590602001908201803590602001908080601f01602080910402602001604051908101604052809392919081815260200183838082843782019150505050505091908035906020019091905050611472565b005b341561027957600080fd5b6102d2600480803590602001909190803590602001908201803590602001908080601f016020809104026020016040519081016040528093929190818152602001838380828437820191505050505050919050506115d6565b005b34156102df57600080fd5b610341600480803590602001909190803590602001909190803590602001908201803590602001908080601f0160208091040260200160405190810160405280939291908181526020018383808284378201915050505050509190505061178f565b005b341561034e57600080fd5b61037a600480803573ffffffffffffffffffffffffffffffffffffffff16906020019091905050611835565b604051808773ffffffffffffffffffffffffffffffffffffffff1673ffffffffffffffffffffffffffffffffffffffff168152602001806020018060200180602001806020018060200186810386528b8181546001816001161561010002031660029004815260200191508054600181600116156101000203166002900480156104455780601f1061041a57610100808354040283529160200191610445565b820191906000526020600020905b81548152906001019060200180831161042857829003601f168201915b505086810385528a8181546001816001161561010002031660029004815260200191508054600181600116156101000203166002900480156104c85780601f1061049d576101008083540402835291602001916104c8565b820191906000526020600020905b8154815290600101906020018083116104ab57829003601f168201915b505086810384528981815460018160011615610100020316600290048152602001915080546001816001161561010002031660029004801561054b5780601f106105205761010080835404028352916020019161054b565b820191906000526020600020905b81548152906001019060200180831161052e57829003601f168201915b50508681038352888181546001816001161561010002031660029004815260200191508054600181600116156101000203166002900480156105ce5780601f106105a3576101008083540402835291602001916105ce565b820191906000526020600020905b8154815290600101906020018083116105b157829003601f168201915b50508681038252878181546001816001161561010002031660029004815260200191508054600181600116156101000203166002900480156106515780601f1061062657610100808354040283529160200191610651565b820191906000526020600020905b81548152906001019060200180831161063457829003601f168201915b50509b50505050505050505050505060405180910390f35b341561067457600080fd5b61068a600480803590602001909190505061188c565b604051808881526020018060200180602001806020018715151515815260200186815260200185815260200184810384528a8181546001816001161561010002031660029004815260200191508054600181600116156101000203166002900480156107375780601f1061070c57610100808354040283529160200191610737565b820191906000526020600020905b81548152906001019060200180831161071a57829003601f168201915b50508481038352898181546001816001161561010002031660029004815260200191508054600181600116156101000203166002900480156107ba5780601f1061078f576101008083540402835291602001916107ba565b820191906000526020600020905b81548152906001019060200180831161079d57829003601f168201915b505084810382528881815460018160011615610100020316600290048152602001915080546001816001161561010002031660029004801561083d5780601f106108125761010080835404028352916020019161083d565b820191906000526020600020905b81548152906001019060200180831161082057829003601f168201915b50509a505050505050505050505060405180910390f35b341561085f57600080fd5b6108676118d8565b6040518082815260200191505060405180910390f35b341561088857600080fd5b6108906118e2565b6040518082815260200191505060405180910390f35b34156108b157600080fd5b6108c760048080359060200190919050506118ec565b604051808673ffffffffffffffffffffffffffffffffffffffff1673ffffffffffffffffffffffffffffffffffffffff16815260200185815260200180602001806020018481526020018381038352868181546001816001161561010002031660029004815260200191508054600181600116156101000203166002900480156109925780601f1061096757610100808354040283529160200191610992565b820191906000526020600020905b81548152906001019060200180831161097557829003601f168201915b5050838103825285818154600181600116156101000203166002900481526020019150805460018160011615610100020316600290048015610a155780601f106109ea57610100808354040283529160200191610a15565b820191906000526020600020905b8154815290600101906020018083116109f857829003601f168201915b505097505050505050505060405180910390f35b3415610a3457600080fd5b610a4a6004808035906020019091905050611940565b6040518082815260200191505060405180910390f35b3415610a6b57600080fd5b610a97600480803573ffffffffffffffffffffffffffffffffffffffff16906020019091905050611960565b6040518082815260200191505060405180910390f35b3415610ab857600080fd5b610ace6004808035906020019091905050611d3a565b604051808773ffffffffffffffffffffffffffffffffffffffff1673ffffffffffffffffffffffffffffffffffffffff168152602001806020018060200180602001806020018060200186810386528b818154600181600116156101000203166002900481526020019150805460018160011615610100020316600290048015610b995780601f10610b6e57610100808354040283529160200191610b99565b820191906000526020600020905b815481529060010190602001808311610b7c57829003601f168201915b505086810385528a818154600181600116156101000203166002900481526020019150805460018160011615610100020316600290048015610c1c5780601f10610bf157610100808354040283529160200191610c1c565b820191906000526020600020905b815481529060010190602001808311610bff57829003601f168201915b5050868103845289818154600181600116156101000203166002900481526020019150805460018160011615610100020316600290048015610c9f5780601f10610c7457610100808354040283529160200191610c9f565b820191906000526020600020905b815481529060010190602001808311610c8257829003601f168201915b5050868103835288818154600181600116156101000203166002900481526020019150805460018160011615610100020316600290048015610d225780601f10610cf757610100808354040283529160200191610d22565b820191906000526020600020905b815481529060010190602001808311610d0557829003601f168201915b5050868103825287818154600181600116156101000203166002900481526020019150805460018160011615610100020316600290048015610da55780601f10610d7a57610100808354040283529160200191610da5565b820191906000526020600020905b815481529060010190602001808311610d8857829003601f168201915b50509b50505050505050505050505060405180910390f35b3415610dc857600080fd5b610f24600480803590602001908201803590602001908080601f0160208091040260200160405190810160405280939291908181526020018383808284378201915050505050509190803590602001908201803590602001908080601f0160208091040260200160405190810160405280939291908181526020018383808284378201915050505050509190803590602001908201803590602001908080601f0160208091040260200160405190810160405280939291908181526020018383808284378201915050505050509190803590602001908201803590602001908080601f0160208091040260200160405190810160405280939291908181526020018383808284378201915050505050509190803590602001908201803590602001908080601f01602080910402602001604051908101604052809392919081815260200183838082843782019150505050505091905050611d91565b005b3415610f3157600080fd5b610f66600480803573ffffffffffffffffffffffffffffffffffffffff16906020019091908035906020019091905050612004565b604051808215151515815260200191505060405180910390f35b3415610f8b57600080fd5b610f936120c7565b604051808273ffffffffffffffffffffffffffffffffffffffff1673ffffffffffffffffffffffffffffffffffffffff16815260200191505060405180910390f35b3415610fe057600080fd5b610fe86120ec565b604051808273ffffffffffffffffffffffffffffffffffffffff1673ffffffffffffffffffffffffffffffffffffffff16815260200191505060405180910390f35b6000600254905090565b61103c612115565b611044612115565b6000806003546040518059106110575750595b90808252806020026020018201604052801561108d57816020015b61107a612129565b8152602001906001900390816110725790505b509250600091505b600354821015611469576007600083815260200190815260200160002090508060c060405190810160405290816000820160009054906101000a900473ffffffffffffffffffffffffffffffffffffffff1673ffffffffffffffffffffffffffffffffffffffff1673ffffffffffffffffffffffffffffffffffffffff168152602001600182018054600181600116156101000203166002900480601f0160208091040260200160405190810160405280929190818152602001828054600181600116156101000203166002900480156111b05780601f10611185576101008083540402835291602001916111b0565b820191906000526020600020905b81548152906001019060200180831161119357829003601f168201915b50505050508152602001600282018054600181600116156101000203166002900480601f0160208091040260200160405190810160405280929190818152602001828054600181600116156101000203166002900480156112525780601f1061122757610100808354040283529160200191611252565b820191906000526020600020905b81548152906001019060200180831161123557829003601f168201915b50505050508152602001600382018054600181600116156101000203166002900480601f0160208091040260200160405190810160405280929190818152602001828054600181600116156101000203166002900480156112f45780601f106112c9576101008083540402835291602001916112f4565b820191906000526020600020905b8154815290600101906020018083116112d757829003601f168201915b50505050508152602001600482018054600181600116156101000203166002900480601f0160208091040260200160405190810160405280929190818152602001828054600181600116156101000203166002900480156113965780601f1061136b57610100808354040283529160200191611396565b820191906000526020600020905b81548152906001019060200180831161137957829003601f168201915b50505050508152602001600582018054600181600116156101000203166002900480601f0160208091040260200160405190810160405280929190818152602001828054600181600116156101000203166002900480156114385780601f1061140d57610100808354040283529160200191611438565b820191906000526020600020905b81548152906001019060200180831161141b57829003601f168201915b505050505081525050838381518110151561144f57fe5b906020019060200201819052508180600101925050611095565b82935050505090565b61147a612194565b6000809054906101000a900473ffffffffffffffffffffffffffffffffffffffff1673ffffffffffffffffffffffffffffffffffffffff163373ffffffffffffffffffffffffffffffffffffffff161415156114d557600080fd5b60e0604051908101604052806001548152602001868152602001858152602001848152602001600115158152602001838152602001600081525090508060046000600154815260200190815260200160002060008201518160000155602082015181600101908051906020019061154d9291906121e6565b50604082015181600201908051906020019061156a9291906121e6565b5060608201518160030190805190602001906115879291906121e6565b5060808201518160040160006101000a81548160ff02191690831515021790555060a0820151816005015560c08201518160060155905050600180600082825401925050819055505050505050565b6000806115e1612266565b6004600086815260200190815260200160002060050154925060046000868152602001908152602001600020600601549150600082840311151561162457600080fd5b6004600086815260200190815260200160002060040160009054906101000a900460ff16151561165357600080fd5b60a0604051908101604052803373ffffffffffffffffffffffffffffffffffffffff16815260200160008152602001858152602001602060405190810160405280600081525081526020018681525090508060056000600254815260200190815260200160002060008201518160000160006101000a81548173ffffffffffffffffffffffffffffffffffffffff021916908373ffffffffffffffffffffffffffffffffffffffff1602179055506020820151816001015560408201518160020190805190602001906117279291906121e6565b5060608201518160030190805190602001906117449291906121e6565b50608082015181600401559050506001600460008781526020019081526020016000206006016000828254019250508190555060016002600082825401925050819055505050505050565b6000809054906101000a900473ffffffffffffffffffffffffffffffffffffffff1673ffffffffffffffffffffffffffffffffffffffff163373ffffffffffffffffffffffffffffffffffffffff161415156117ea57600080fd5b8160056000858152602001908152602001600020600101819055508060056000858152602001908152602001600020600301908051906020019061182f9291906122b8565b50505050565b60066020528060005260406000206000915090508060000160009054906101000a900473ffffffffffffffffffffffffffffffffffffffff1690806001019080600201908060030190806004019080600501905086565b60046020528060005260406000206000915090508060000154908060010190806002019080600301908060040160009054906101000a900460ff16908060050154908060060154905087565b6000600354905090565b6000600154905090565b60056020528060005260406000206000915090508060000160009054906101000a900473ffffffffffffffffffffffffffffffffffffffff1690806001015490806002019080600301908060040154905085565b600060046000838152602001908152602001600020600601549050919050565b611968612338565b600660008373ffffffffffffffffffffffffffffffffffffffff1673ffffffffffffffffffffffffffffffffffffffff16815260200190815260200160002060c060405190810160405290816000820160009054906101000a900473ffffffffffffffffffffffffffffffffffffffff1673ffffffffffffffffffffffffffffffffffffffff1673ffffffffffffffffffffffffffffffffffffffff168152602001600182018054600181600116156101000203166002900480601f016020809104026020016040519081016040528092919081815260200182805460018160011615610100020316600290048015611aa25780601f10611a7757610100808354040283529160200191611aa2565b820191906000526020600020905b815481529060010190602001808311611a8557829003601f168201915b50505050508152602001600282018054600181600116156101000203166002900480601f016020809104026020016040519081016040528092919081815260200182805460018160011615610100020316600290048015611b445780601f10611b1957610100808354040283529160200191611b44565b820191906000526020600020905b815481529060010190602001808311611b2757829003601f168201915b50505050508152602001600382018054600181600116156101000203166002900480601f016020809104026020016040519081016040528092919081815260200182805460018160011615610100020316600290048015611be65780601f10611bbb57610100808354040283529160200191611be6565b820191906000526020600020905b815481529060010190602001808311611bc957829003601f168201915b50505050508152602001600482018054600181600116156101000203166002900480601f016020809104026020016040519081016040528092919081815260200182805460018160011615610100020316600290048015611c885780601f10611c5d57610100808354040283529160200191611c88565b820191906000526020600020905b815481529060010190602001808311611c6b57829003601f168201915b50505050508152602001600582018054600181600116156101000203166002900480601f016020809104026020016040519081016040528092919081815260200182805460018160011615610100020316600290048015611d2a5780601f10611cff57610100808354040283529160200191611d2a565b820191906000526020600020905b815481529060010190602001808311611d0d57829003601f168201915b5050505050815250509050919050565b60076020528060005260406000206000915090508060000160009054906101000a900473ffffffffffffffffffffffffffffffffffffffff1690806001019080600201908060030190806004019080600501905086565b611d99612338565b60c0604051908101604052803373ffffffffffffffffffffffffffffffffffffffff16815260200187815260200186815260200185815260200184815260200183815250905080600660003373ffffffffffffffffffffffffffffffffffffffff1673ffffffffffffffffffffffffffffffffffffffff16815260200190815260200160002060008201518160000160006101000a81548173ffffffffffffffffffffffffffffffffffffffff021916908373ffffffffffffffffffffffffffffffffffffffff1602179055506020820151816001019080519060200190611e829291906121e6565b506040820151816002019080519060200190611e9f9291906121e6565b506060820151816003019080519060200190611ebc9291906121e6565b506080820151816004019080519060200190611ed99291906121e6565b5060a0820151816005019080519060200190611ef69291906121e6565b509050508060076000600354815260200190815260200160002060008201518160000160006101000a81548173ffffffffffffffffffffffffffffffffffffffff021916908373ffffffffffffffffffffffffffffffffffffffff1602179055506020820151816001019080519060200190611f739291906121e6565b506040820151816002019080519060200190611f909291906121e6565b506060820151816003019080519060200190611fad9291906121e6565b506080820151816004019080519060200190611fca9291906121e6565b5060a0820151816005019080519060200190611fe79291906121e6565b509050506001600360008282540192505081905550505050505050565b6000806000809150600090505b6002548110156120bc578473ffffffffffffffffffffffffffffffffffffffff166005600083815260200190815260200160002060000160009054906101000a900473ffffffffffffffffffffffffffffffffffffffff1673ffffffffffffffffffffffffffffffffffffffff161480156120a15750836005600083815260200190815260200160002060040154145b156120af57600191506120bc565b8080600101915050612011565b819250505092915050565b6000809054906101000a900473ffffffffffffffffffffffffffffffffffffffff1681565b60008060009054906101000a900473ffffffffffffffffffffffffffffffffffffffff16905090565b602060405190810160405280600081525090565b60c060405190810160405280600073ffffffffffffffffffffffffffffffffffffffff16815260200161215a6123a3565b81526020016121676123a3565b81526020016121746123a3565b81526020016121816123a3565b815260200161218e6123a3565b81525090565b60e060405190810160405280600081526020016121af6123a3565b81526020016121bc6123a3565b81526020016121c96123a3565b815260200160001515815260200160008152602001600081525090565b828054600181600116156101000203166002900490600052602060002090601f016020900481019282601f1061222757805160ff1916838001178555612255565b82800160010185558215612255579182015b82811115612254578251825591602001919060010190612239565b5b50905061226291906123b7565b5090565b60a060405190810160405280600073ffffffffffffffffffffffffffffffffffffffff1681526020016000815260200161229e6123a3565b81526020016122ab6123a3565b8152602001600081525090565b828054600181600116156101000203166002900490600052602060002090601f016020900481019282601f106122f957805160ff1916838001178555612327565b82800160010185558215612327579182015b8281111561232657825182559160200191906001019061230b565b5b50905061233491906123b7565b5090565b60c060405190810160405280600073ffffffffffffffffffffffffffffffffffffffff1681526020016123696123a3565b81526020016123766123a3565b81526020016123836123a3565b81526020016123906123a3565b815260200161239d6123a3565b81525090565b602060405190810160405280600081525090565b6123d991905b808211156123d55760008160009055506001016123bd565b5090565b905600a165627a7a723058200372b360d61acbbaee74f291da3536f092c82cdaaf7dd41c34a2adbf28c6ef010029",
  "source": "// SPDX-License-Identifier: GPL-3.0\r\npragma solidity ^0.4.17;\r\n// pragma experimental ABIEncoderv2;\r\n\r\n//atribut dan fungsi\r\ncontract Beasiswa {\r\n    address public admin;\r\n    uint jumlah_beasiswa;\r\n    uint jumlah_pendaftar_all;\r\n    uint jumlah_mahasiswa;\r\n\r\n    function Beasiswa() public {     \r\n        admin = msg.sender; \r\n        jumlah_beasiswa = 0;\r\n        jumlah_pendaftar_all = 0;\r\n        jumlah_mahasiswa = 0;\r\n    }\r\n    // Fungsi restrict / batas agar hanya bisa diakses oleh admin\r\n    function Admin() public view returns(address) {\r\n        return admin;\r\n    }\r\n    // hanya admin yang bisa mengakses\r\n    modifier onlyAdmin() {\r\n        require(msg.sender == admin);\r\n        _;\r\n    }\r\n\r\n    // Set up struktur data Beasiswa\r\n    struct Data_Beasiswa{\r\n        uint id;\r\n        string judul;\r\n        string deskripsi;\r\n        string main_link;\r\n        bool is_active;\r\n        uint kuota;\r\n        uint jumlah_pendaftar;\r\n    }\r\n\r\n    // Pemetaan atau memasukkan data tunggal beasiswa agar menjadi suatu kumpulan data beasiswa\r\n    mapping(uint => Data_Beasiswa) public List_Beasiswa;\r\n\r\n    // memiliki beberapa parameter yang hanya dapat di akses oleh admin saja \r\n        function penambahanBeasiswa(string _judul, string _deskripsi, string _main_link, uint _kuota) public onlyAdmin() {\r\n    // membuat data beasiswa baru dari atribut-atribut yang sudah di sediakan     \r\n        Data_Beasiswa memory newBeasiswa = Data_Beasiswa({\r\n            id : jumlah_beasiswa,\r\n            judul : _judul,\r\n            deskripsi : _deskripsi,\r\n            main_link : _main_link,\r\n            is_active : true,\r\n            kuota : _kuota,\r\n            jumlah_pendaftar : 0\r\n        });\r\n        // menambahkan list beasiswa menggunkan array\r\n        List_Beasiswa[jumlah_beasiswa] = newBeasiswa;\r\n        jumlah_beasiswa += 1;\r\n    }\r\n    // fungsi mengmbalikan jumalah beasisawa yang terdaftar di sistem\r\n    function getSumBeasiswa() public view returns (uint) {\r\n        return jumlah_beasiswa;\r\n    }\r\n\r\n    // Set up data pelamar beasiswa\r\n    struct MahasiswaPelamar {\r\n        address id_mhs;\r\n        uint is_verified;\r\n        string ipk;\r\n        string alasan;\r\n        uint beasiswa_id;\r\n    }\r\n\r\n    mapping(uint => MahasiswaPelamar) public list_mahasiswa_pendaftar;\r\n\r\n    function mendaftarBeasiswa(uint _beasiswa_id, string _ipk) public {\r\n        uint kuota = List_Beasiswa[_beasiswa_id].kuota;\r\n        uint jumlah_pendaftar = List_Beasiswa[_beasiswa_id].jumlah_pendaftar;\r\n        // Harus masih ada kuota tersisa\r\n        require((kuota - jumlah_pendaftar) > 0);\r\n        require(List_Beasiswa[_beasiswa_id].is_active);\r\n        // string [] initArr;\r\n        // initArr.push(\"0\");\r\n        // initArr.push(\"-\");\r\n        MahasiswaPelamar memory newMahasiswaPelamar = MahasiswaPelamar({\r\n            id_mhs : msg.sender,\r\n            is_verified : 0,\r\n            alasan : \"\",\r\n            ipk : _ipk,\r\n            beasiswa_id : _beasiswa_id\r\n        });\r\n        list_mahasiswa_pendaftar[jumlah_pendaftar_all] = newMahasiswaPelamar;\r\n        List_Beasiswa[_beasiswa_id].jumlah_pendaftar += 1;\r\n        jumlah_pendaftar_all += 1;\r\n    }\r\n\r\n    //fungsi mengmbalikan total jumalah semua pendaftar yang terdaftar di sistem \r\n    function getSumAllPendaftar() public view returns (uint) {\r\n        return jumlah_pendaftar_all;\r\n    }\r\n    // fungsi mengembalikan jumlah pendaftar di setiap beasiswa\r\n    function getSumPendaftar(uint beasiswa) public view returns (uint) {\r\n        return List_Beasiswa[beasiswa].jumlah_pendaftar;\r\n    }\r\n\r\n    // Untuk admin memverifikasi tahap 1 pendaftaram, sebelum mhs lanjut ke situs utama\r\n    function verify_mahasiswa(uint _id_mhs, uint status, string alasan) public onlyAdmin() {\r\n        list_mahasiswa_pendaftar[_id_mhs].is_verified = status;\r\n        list_mahasiswa_pendaftar[_id_mhs].alasan = alasan;\r\n    }    \r\n\r\n    // function ubahStatusBeasiswa(uint _id_beasiswa, bool status) public onlyAdmin() {\r\n    //     List_Beasiswa[_id_beasiswa].is_active = status;\r\n    // }    \r\n\r\n//mencegah pendaftaran lebih dari sekali di beasiswa yang sama \r\n    function cek_regist_exist(address mhs, uint beasiswa_id) public view returns (bool){\r\n        bool terdaftar = false;\r\n        for (uint i = 0; i < jumlah_pendaftar_all; i++) {\r\n            if (list_mahasiswa_pendaftar[i].id_mhs == mhs && list_mahasiswa_pendaftar[i].beasiswa_id == beasiswa_id) {\r\n                terdaftar = true;\r\n                break;\r\n            }\r\n        }    \r\n        return terdaftar;\r\n    }\r\n\r\n    // Set up mahasiswa, data diri saja. Bukan data pelamar.\r\n    struct Mahasiswa {\r\n        address id_mhs;\r\n        string nama;\r\n        string nim;\r\n        // string ipk;\r\n        string ttl;\r\n        string alamat;\r\n        string email;\r\n    }\r\n\r\n    //Pemetaan atau memasukkan data tunggal mahasiswa yang mendaftar agar menjadi suatu kumpulan data mahasiswa\r\n    mapping(address => Mahasiswa) public list_mahasiswa;\r\n    mapping(uint => Mahasiswa) public list_mahasiswa_admin;\r\n\r\n    function simpanDataDiri(string _nama, string _nim, string _ttl, string _alamat, string _email) public {\r\n        Mahasiswa memory newMahasiswa = Mahasiswa({\r\n            id_mhs : msg.sender,\r\n            nama : _nama,\r\n            nim : _nim,\r\n            // ipk : _ipk,\r\n            ttl : _ttl,\r\n            alamat : _alamat,\r\n            email : _email\r\n        });\r\n        list_mahasiswa[msg.sender] = newMahasiswa;\r\n        list_mahasiswa_admin[jumlah_mahasiswa] = newMahasiswa;\r\n        jumlah_mahasiswa += 1;\r\n    }\r\n    \r\n    function getSumAllMahasiswa() public view returns (uint) {\r\n        return jumlah_mahasiswa;\r\n    }\r\n\r\n    function getAllMahasiswa() public view returns (Mahasiswa[] memory) {\r\n        Mahasiswa[] memory allMhs = new Mahasiswa[](jumlah_mahasiswa);\r\n        for (uint i = 0; i < jumlah_mahasiswa; i++) {\r\n            Mahasiswa storage mhs = list_mahasiswa_admin[i];\r\n            allMhs[i] = mhs;\r\n        }\r\n        return allMhs;\r\n        // return list_mahasiswa_admin[0];\r\n    }\r\n\r\n    function getMahasiswa(address mhs) public view returns (Mahasiswa memory) {\r\n        return list_mahasiswa[mhs];\r\n    }   \r\n\r\n    \r\n    \r\n    \r\n}",
  "sourcePath": "D:\\skripsi deadline 1 bulan\\Projek Skripsi_with alasan\\Projek Skripsi 2\\contracts\\Beasiswa.sol",
  "compiler": {
    "name": "solc",
    "version": "0.4.17+commit.bdeb9e52.Emscripten.clang"
  },
  "schemaVersion": "3.4.7",
  "updatedAt": "2022-09-24T16:53:47.261Z",
  "networkType": "ethereum",
  "devdoc": {
    "methods": {}
  },
  "userdoc": {
    "methods": {}
  }
}